:100000000C94BC000C94C6000C94C6000C94C60062
:100010000C94C6000C94C6000C94C6000C94C60048
:100020000C94C6000C94C6000C94C6000C94C60038
:100030000C94C6000C94C6000C94C6000C94C60028
:100040000C94C6000C94C6000C94C6000C94C60018
:100050000C94C6000C94C6000C94C6000C94C60008
:100060000C94C6000C94C6000C94C6000C94C600F8
:100070000C94C6000C94C6000C94C6000C94C600E8
:100080000C94C6000C94C6000C94C6000C94C600D8
:100090000C94C6000C94C6000C94C6000C94C600C8
:1000A0000C94C6000C94C6000C94C6000C94C600B8
:1000B0000C94C6000C94C6000C94C6000C94C600A8
:1000C0000C94C6000C94C6000C94C6000C94C60098
:1000D0000C94C6000C94C6000C94C6000C94C60088
:1000E0000C94C6000C94C6000C94C6000C94C60078
:1000F0000C94C6000C94C6000C94C6000C94C60068
:100100000C94C6000C94C6000C94C6000C94C60057
:100110000C94C6000C94C6000C94C6000C94C60047
:100120000C94C6000C94C6000C94C6000C94C60037
:100130000C94C6000C94C6000C94C6000C94C60027
:100140000C94C6000C94C6000C94C6000C94C60017
:100150000C94C6000C94C6000C94C6000C94C60007
:100160000C94C6000C94C6000C94C6000C94C600F7
:100170000C94C6000C94C60011241FBECFEFCDBF57
:10018000DFE2DEBF0E94C8000C94FD000C9400006A
:1001900086E0809350008091510081FFFCCF8091D8
:1001A000510082FFFCCF88ED84BF1092410084BFD4
:1001B00081E080934000109256008093600010927E
:1001C000720684E080936106809365062AEA36EE23
:1001D00046E991E02150304040409040D9F700007E
:1001E000809366062AEA36EE46E991E021503040D7
:0E01F00040409040D9F70000E7CFF894FFCFD1
:00000001FF
