:100000000C94BC000C94D9000C94D9000C94D90029
:100010000C94D9000C94D9000C94D9000C94D900FC
:100020000C94D9000C94D9000C94D9000C94D900EC
:100030000C94D9000C94D9000C94D9000C94D900DC
:100040000C94D9000C94D9000C94D9000C94D900CC
:100050000C94D9000C94D9000C94D9000C94D900BC
:100060000C94D9000C9480020C94D9000C94CD020D
:100070000C94D9000C94D9000C94D9000C94D9009C
:100080000C94D9000C94D9000C94D9000C94D9008C
:100090000C94D9000C94D9000C94D9000C94D9007C
:1000A0000C94D9000C94D9000C94D9000C94D9006C
:1000B0000C94D9000C94D9000C94D9000C94D9005C
:1000C0000C94D9000C94D9000C94D9000C94D9004C
:1000D0000C94D9000C94D9000C94D9000C94D9003C
:1000E0000C94D9000C94D9000C94D9000C94D9002C
:1000F0000C94D9000C94D9000C94D9000C94D9001C
:100100000C94D9000C94D9000C94D9000C94D9000B
:100110000C94D9000C94D9000C94D9000C94D900FB
:100120000C94D9000C94D9000C94D9000C94D900EB
:100130000C94D9000C94D9000C94D9000C94D900DB
:100140000C94D9000C94D9000C94D9000C94D900CB
:100150000C94D9000C94D9000C94D9000C94D900BB
:100160000C94D9000C94D9000C94D9000C94D900AB
:100170000C94D9000C94D90011241FBECFEFCDBF31
:10018000DFE2DEBF11E2A0E0B0E2E4EEFEE102C099
:1001900005900D92A038B107D9F724E2A0E8B1E2AA
:1001A00001C01D92AE3FB207E1F70E94A50D0C946D
:1001B000700F0C940000803A28E0920749F41092E6
:1001C000520684E0809342061092530688E00CC0E9
:1001D000803B28E0920759F41092560680E4809301
:1001E00042061092570680E8809341060895803AAF
:1001F00029E0920749F41092720684E08093620627
:100200001092730688E00CC0803B29E0920759F4F5
:100210001092760680E4809362061092770680E85A
:10022000809361060895803A9A4051F410929206A4
:1002300084E0809382061092930688E08093810682
:100240000895803A28E0920771F41092520684E0F3
:10025000809342061092530688E0809341061092E4
:10026000510682E011C0803B28E0920781F4109291
:10027000560680E4809342061092570680E88093E9
:1002800041061092550680E2809341060895803A17
:1002900029E0920771F41092720684E0809362065E
:1002A0001092730688E0809361061092710682E0D6
:1002B00011C0803B29E0920781F41092760680E419
:1002C000809362061092770680E880936106109210
:1002D000750680E2809361060895803A9A4079F429
:1002E0001092920684E0809382061092930688E032
:1002F000809381061092910682E080938106089592
:10030000F901868397834583611102C088E101C0AA
:100310008CE184830895F901868397834064458343
:10032000611102C088E101C08CE184830895FA0163
:100330008683178280EC8583611102C088E101C049
:100340008CE184830895FA018683178280EC85838B
:10035000611102C088E001C08CE084830895FC0133
:10036000148208956295607F462B880F880F842B36
:10037000F90183830895FB018083FB01818185FF5F
:10038000FCCF0895FC01218127FFFCCF80810895D7
:10039000FB01918196FFFDCF8083818187FFFDCF97
:1003A00080810895982FFB018181882311F090832B
:1003B00081E00895FC01218127FF03C0808190E046
:1003C00008958FEF9FEF0895EF92FF920F931F9381
:1003D000CF938C017B01C0E0F801EC0FF11D80810F
:1003E000882329F0B7010E94BB01CF5FF5CFCF91E1
:1003F0001F910F91FF90EF900895CF92DF92FF929F
:100400000F931F93CF93DF93CDB7DEB7A097CDBFE8
:10041000DEBFDC01CB01F22E680150E0BE016F5F50
:100420007F4F0E94300F10E0E1E0F0E0EC0FFD1F85
:10043000E10FF11D8081882329F0B6010E94BB01E4
:100440001F5FF2CFFF2021F0B6018F2D0E94BB016C
:10045000A096CDBFDEBFDF91CF911F910F91FF908E
:10046000DF90CF900895CF92DF92EF92FF920F939B
:100470001F93CF93DF937C016A018C01EB012197DD
:10048000C8018E199F09C817D90738F0B601F801BD
:1004900081918F010E94BB01F3CFDF91CF911F911A
:1004A0000F91FF90EF90DF90CF900895CF93DF935F
:1004B000CDB7DEB7E297CDBFDEBF82E3E4E7F0E27F
:1004C000DE01119601900D928A95E1F780EA9AE09B
:1004D0000E94DB00E0EAFAE081E0868383EA87831A
:1004E00083E0858388E1848360EA7AE0CE01019627
:1004F0000E94E401E296CDBFDEBFDF91CF91089567
:100500001F920F920FB60F9211242F933F938F9348
:100510009F93EF93FF938091802190918121029787
:1005200089F180918221909183219C012F5F3F4F1F
:1005300020938221309383212091A008FC01EA5668
:10054000FE4D208380918221909183218F3F9105E0
:1005500029F020F010928221109283212091822193
:10056000309183218091842190918521281739072A
:1005700019F482E090E002C081E090E08093802155
:1005800090938121FF91EF919F918F913F912F91B6
:100590000F900FBE0F901F9018951F920F920FB6DD
:1005A0000F9211242F933F938F939F93EF93FF9379
:1005B00080918A2190918B21019680938A2190933A
:1005C0008B2180918A2190918B218F3F910529F079
:1005D00020F010928A2110928B2120918A21309153
:1005E0008B2180918821909189212817390729F43E
:1005F000109286211092872106C081E090E08093BE
:100600008621909387218091862190918721892B43
:1006100049F0E0918A21F0918B21EA56FD4D8081CD
:100620008093A008FF91EF919F918F913F912F911F
:100630000F900FBE0F901F901895813071F580912B
:100640008021882361F18091842190918521FC0192
:10065000EA56FE4D208130E001968F3F910509F06A
:1006600028F4809384219093852104C010928421E2
:100670001092852140918421509185218091822181
:10068000909183214817590719F41092802103C0D3
:1006900081E080938021C90108958EEF01C08FEF22
:1006A0009FEF0895CF93DF93813009F049C0C09147
:1006B0008621C23009F447C020918A2130918B21D4
:1006C0008091882190918921F901E81BF90BCF01D4
:1006D0001E161F060CF0939584179507A0F1DB01F9
:1006E000415051098091882190918921FD01E61B9B
:1006F000F70B4E175F0798F0DD91FC01EA56FD4DB0
:10070000D08301968038910528F4809388219093B6
:100710008921E8CF1092882110928921E3CF2817F0
:10072000390711F482E001C081E080938621C11174
:100730000DC0F901EA56FD4D80818093A00806C0E6
:100740008EEF9FEF05C08FEF9FEF02C081E090E03A
:10075000DF91CF910895813069F410928421109235
:10076000852110928221109283211092802181E0B4
:1007700090E008958EEF9FEF0895813081F42091ED
:100780008A2130918B218091882190918921281B89
:10079000390B121613060CF03395C90108958EEF2C
:1007A0009FEF0895813081F420918221309183213F
:1007B0008091842190918521281B390B12161306F4
:1007C0000CF03395C90108958EEF9FEF0895CF93F4
:1007D000C82F0E945203C130A1F48F3F2FEF920720
:1007E00071F08E3F2FEF920761F0019739F48091FD
:1007F00086218111FECF81E090E005C004C08FEF1B
:1008000001C08EEF9FEFCF910895FF920F931F933A
:10081000CF93DF93F82EEB018B01040F151FC01748
:10082000D10769F08F2D0E941D038E3F2FEF920795
:1008300049F08F3F2FEF920791F38993F0CF81E03A
:1008400090E002C08EEF9FEFDF91CF911F910F914B
:10085000FF9008958F929F92AF92BF92CF92DF92B6
:10086000FF920F931F93CF93DF93CDB7DEB7C85C92
:10087000D109CDBFDEBFCA52DF4FF880C65DD04080
:10088000C952DF4F88809980AA80BB80C75DD04065
:100890008E010F5F1F4F27E0F21217C0C552DF4FC6
:1008A000C880D980CB5DD04060911E2070911F2000
:1008B000C8010E94290FB601C8010E94150F6EECF5
:1008C00070E2C8010E94150F0BC0EF2DF0E0EE0F93
:1008D000FF1FE05FFF4D60817181C8010E94290FF9
:1008E00081E00E94AB03F80101900020E9F7319705
:1008F000AF01401B510BB80181E00E94520338E860
:10090000831633E19306A104B10499F170F488ECE5
:1009100088169104A104B104B1F5FFEF27E833E193
:10092000F15020403040E1F722C090EE89169EE25F
:100930009906A104B10491F0E0EC8E16E4ED9E0658
:10094000E1E0AE06B104F9F4FFEF2FE935E266E22B
:10095000F150204030406040D9F709C06FEF8FE878
:1009600090EDE3E0615080409040E040D9F700C056
:1009700009C08AEA96EEE6E9F1E081509040E04055
:10098000F040D9F700008E010B591F4F8CE7F8019A
:100990008083580148016401C01AD10A81E00E9495
:1009A0001D03FFEF8F1A9F0A8F3F2FEF920719F059
:1009B000F4018083F0CFC114D10419F481E090E0F8
:1009C0005FC0F801EC0DFD1D108240E050E080E0BA
:1009D00090E020E030E07CE7F50161915F016D304F
:1009E00051F06A3041F0F801E80FF91F6083019679
:1009F00041E050E00DC02130310541F04115510575
:100A000039F0F801E80FF91F7083019640E050E0DB
:100A1000F6013197E217F30741F4F801E80FF91FE7
:100A200010826C01F1E0CF1AD1082F5F3F4F2C15D7
:100A30003D0590F2CD2811F260EA7AE0C8010E94EB
:100A4000E40160EA7AE08AE00E94BB01EF2DF0E069
:100A5000EE0FFF1FE050F04EC080D180560126E01F
:100A6000A20EB11CF601619171916F01C8010E9443
:100A7000200F009729F0CA14DB04A1F780E090E072
:100A8000C853DF4FCDBFDEBFDF91CF911F910F91D4
:100A9000FF90DF90CF90BF90AF909F908F90089580
:100AA0000F931F93CF93DF931092910682E0809370
:100AB0008106809386062FEF31EE94E0215030407E
:100AC0009040E1F700C00000809385062FEF33E2ED
:100AD00094EF215030409040E1F700C00000809337
:100AE00086062FEF3FE880ED93E0215030408040B4
:100AF0009040D9F700C0000000E010E0C0E0D8EC62
:100B00001F921F921F92DF93CF930E942A04080F17
:100B1000191FCF5F0F900F900F900F900F90C7305D
:100B200079F7C801DF91CF911F910F910895EF924E
:100B3000FF920F931F93CF93DF93CDB7DEB72C9720
:100B4000CDBFDEBFE982FA820B831C832D834F83E6
:100B500069878B879C87E981FA818B819C812B85B2
:100B60003C85E03C48E0F40749F58130910571F49B
:100B70001092550640E2409341061092570640E815
:100B8000409341061092560640E415C0009709F0C4
:100B90005EC01092550640E24093420610925706FE
:100BA00040E8409342061092560640E440934106C6
:100BB0001092540640E1409342062CC0E03C49E0CC
:100BC000F40709F044C08130910571F41092750664
:100BD00040E2409361061092770640E84093610638
:100BE0001092760640E414C0009789F510927506BD
:100BF00040E2409362061092770640E84093620616
:100C00001092760640E4409361061092740640E12B
:100C1000409362062F3F4FEF340729F0243031050F
:100C200014F4218301C011829985292F220F220FEC
:100C30009F819064922B2D812295220F207E922BF2
:100C40008295807F892B808381E090E002C080E0E4
:100C500090E02C96CDBFDEBFDF91CF911F910F9119
:100C6000FF90EF900895EF92FF920F931F93CF9311
:100C7000DF93CDB7DEB72C97CDBFDEBFE982FA8216
:100C8000E981FA81E03C88E0F807A9F41092550662
:100C900080E2809342061092570680E880934206D5
:100CA0001092560680E4809342061092540680E12A
:100CB0008093420618C0E03C89E0F807C9F410921E
:100CC000750680E2809362061092770680E8809332
:100CD00062061092760680E4809362061092740693
:100CE00080E1809362061182108281E090E002C070
:100CF00080E090E02C96CDBFDEBFDF91CF911F91B9
:100D00000F91FF90EF900895FB01838341155105EA
:100D100051F0828187FD0AC08AE08A95F1F700C010
:100D200041505109F3CF8FEF9FEF0895838190E0F9
:100D30000895FB018383828187FFFDCF838108951E
:100D4000FB0183830895FC01838108954FEF50E0F8
:100D500060EC79E00E9484068F3F2FEF920711F03C
:100D6000992708958FEF9FEF08950F931F93CF93C7
:100D7000DF93182F809124208F3F99F4C0E1C09316
:100D800066068FE10E94A606019731F180E00E947D
:100D9000A6068130910501F1837080932420C093D1
:100DA0006506C12FC076D0E085E0D595C7958A95B8
:100DB000E1F78091242090E0C817D90761F11F71F5
:100DC0001B3148F5C43050F500E1009366068FE111
:100DD0000E94A606019619F48FEF9FEF21C080E0D4
:100DE0000E94A6068F3F2FEF9207B1F3009365068E
:100DF0008C7F1C2F182B009366068FE50E94A60699
:100E0000019651F3812F0E94A606019629F30093C3
:100E10006506C093242080E090E002C08EEF9FEF33
:100E2000DF91CF911F910F9108951F93CF93DF937F
:100E3000C82F162F0E94B5060097A1F4D0E1D093D9
:100E400066068C2F8F7180680E94A606019641F07D
:100E5000812F0E94A606D093650680E090E002C034
:100E60008FEF9FEFDF91CF911F9108951F93CF9345
:100E7000DF93C82F162F0E94B5060097A1F4D0E18A
:100E8000D09366068C2F8F71806A0E94A606019609
:100E900041F0812F0E94A606D093650680E090E085
:100EA00002C08FEF9FEFDF91CF911F9108952091A6
:100EB0002220309123208FEF9FE1821B930B089516
:100EC000809190219091912108950F931F93CF933A
:100ED000DF93EC0160EA7AE084EF90E20E94E401A3
:100EE000BE010D2E000C880B990B00EA1AE020E0E1
:100EF0004AE00E94FD0160EA7AE082E790E20E9407
:100F0000E40180919421811105C060EA7AE082E0D9
:100F100091E207C080E48093942160EA7AE089E15D
:100F200091E20E94E40160EA7AE080E391E20E94AB
:100F3000E4016091932170E080E090E000EA1AE023
:100F400020E040E10E94FD0160EA7AE080E491E265
:100F50000E94E4016091922170E080E090E020E046
:100F600040E10E94FD0160EA7AE085E591E20E949D
:100F7000E4016091952170E080E090E020E040E1A4
:100F80000E94FD0160EA7AE087E691E20E94E401B6
:100F90006091242070E080E090E020E040E10E9439
:100FA000FD01CE01DF91CF911F910F910895CF9256
:100FB000DF92EF92FF920F931F93CF93DF93D82F7F
:100FC0007B01282F2F71D22E2093952110929421EE
:100FD0000E94B506009771F5C0E000E010E090E1D6
:100FE000C92E1BC0D7FD30C080E00E94A6068F3FEF
:100FF0002FEF9207E9F048E0C49F90011124AC0163
:1010000002C0440F551F2A95E2F7042B152BC092FE
:10101000650651E0E51AF108CF5FE114F104D1F063
:10102000C09266068C2F8D0D0E94A6060196D1F601
:101030008FEF9FEFDF91CF911F910F91FF90EF9076
:10104000DF90CF900C94650780E00E94A606019681
:1010500059F6EECF80939221C801DF91CF911F9175
:101060000F91FF90EF90DF90CF900895CF92DF9295
:10107000EF92FF920F931F93CF93DF93D82F8B01A3
:101080007A01282F2F71D22E2093952180E480930E
:101090009421609393218D2F0E94B5060097A1F5AE
:1010A000C0E080E1C82EE114F10411F1C09266069F
:1010B0008C2F8D0D80640E94A606019679F028E0A1
:1010C000C29FC0011124980102C0369527958A95C8
:1010D000E2F7C9010E94A606019619F48FEF9FEF6F
:1010E00013C0C092650681E0E81AF108CF5FDBCF3C
:1010F0006C2F70E08D2F0E94D70797FD05C0081751
:10110000190761F08BEF9FEFDF91CF911F910F9146
:10111000FF90EF90DF90CF900C94650780E090E017
:10112000DF91CF911F910F91FF90EF90DF90CF90C3
:1011300008958F929F92AF92BF92CF92DF92EF92DB
:10114000FF920F931F93CF93DF93CDB7DEB7AF849A
:10115000B888EF8CF8A009A11AA1CBA0DCA0A1143B
:1011600080E2B80680F50115110569F1C114D104BA
:1011700051F1EFE5F9E03197F1F700C0000044E1EB
:10118000942E61E070E08DE10E94D70797FD33C097
:1011900080FD1CC08FE193E00197F1F700C00000D3
:1011A0009A949110EECF85EF9FEFDF91CF911F9131
:1011B0000F91FF90EF90DF90CF90BF90AF909F90F6
:1011C0008F900C9465072EEF9FEF3FC142E050E0F7
:1011D00060E070E088E00E94360897FD0CC0450191
:1011E00091E0891A910842E050E0B4018AE00E943F
:1011F000360897FF02C0282F28C180929021909234
:101200009121A0922220B0922320A0922020B0927F
:10121000212042E050E060E070E08CE00E9436085F
:1012200097FDE9CF69897A8941E050E088E30E941F
:10123000360897FDE0CF61E070E080EC0E94D707B0
:1012400097FDD9CF807FF8016081660F6160862BA2
:10125000682F70E041E050E080EC0E94360897FD76
:10126000CACFF80162816295607F8481880F682B04
:101270006E298681880F880F880F682B70E041E007
:1012800050E082EC0E94360897FDB5CFE114F104DE
:1012900059F0F8016085718542E050E08AEC0E94C7
:1012A000360897FF18C0A7CF61E070E083EC0E947A
:1012B000D70797FDA0CF8F78F80162856295607F90
:1012C000862B682F70E041E050E083EC0E943608E6
:1012D00097FFDFCF90CFF1E0EF16F10471F441E01A
:1012E00050E065E170E084EC0E94360897FD83CF02
:1012F00042E050E062E17CE01BC0E114F10459F0EF
:10130000F801648570E041E050E084EE0E94360808
:1013100097FF14C070CF41E050E062E170E084ECD0
:101320000E94360897FD67CF42E050E062E170E02E
:1013300086EC0E94360897FFE3CF5DCFF801658504
:1013400070E041E050E085EE0E94360897FD53CFF3
:10135000F801668570E041E050E082EE0E943608B8
:1013600097FD49CFF801678570E041E050E083EEDA
:101370000E94360897FD3FCFF801608970E041E098
:1013800050E080EE0E94360897FD35CFF801618964
:1013900070E041E050E081EE0E94360897FD2BCFCF
:1013A000F1E0EF16F10471F440E051E06FEF7EEBF5
:1013B00080E00E947E0E97FD1ECF40E050E46FEF6C
:1013C0007FEB3DC0EF2871F180E090E0F601908165
:1013D0004281538124E0440F551F2A95E1F7482BA1
:1013E000592B84819581880F991F482B592B61E0D7
:1013F00070EF84E10E947E0E97FDFDCE6DA170E03E
:1014000041E050E08BE10E94360864E08FE10E94E9
:10141000150760EA7AE085E791E20E94E40120E0A6
:1014200090E013C040E050E06FEF7EEF80E00E945C
:101430007E0E97FDE0CE40E051E06FEF7EEF80E161
:101440000E947E0E97FFC0CFD6CE822FDF91CF9124
:101450001F910F91FF90EF90DF90CF90BF90AF90D2
:101460009F908F900895CF92DF92EF92FF920F930B
:101470001F93CF93DF93EA01009729F0209719F08B
:101480006115710519F48EEF9FEF38C02A813B81F9
:1014900021153042C0F7288139812115E0E23E074D
:1014A00090F78B017C0142E050E0B90180E00E949E
:1014B00036086A817B8142E050E082E00E94360873
:1014C00061E070E08EE10E94D70787FD08C0806868
:1014D000682F70E041E050E08EE10E9436088AE318
:1014E0008093942180E1809366068AE30E94A60699
:1014F00097FD04C06701C00ED11E2DC0DF91CF91B2
:101500001F910F91FF90EF90DF90CF900C946507A3
:1015100080E00E94A60697FDF1CF182FF701819376
:101520007F0160EA7AE082E790E20E94E401612FA5
:1015300070E080E090E000EA1AE020E040E10E94E4
:10154000FD01888199810196888399838A819B8195
:1015500001968A839B83EC14FD04D1F680E180938D
:10156000650680E090E0DF91CF911F910F91FF9091
:10157000EF90DF90CF9008950F931F93CF93DF9359
:10158000CDB7DEB72A97CDBFDEBF8C0120918E216B
:1015900030918F2140919021509191214217530712
:1015A000B8F080918C2190918D214817590780F0D7
:1015B000211560E2360760F48115E0E29E0740F4F1
:1015C000452B31F02817390719F40115110519F4C5
:1015D0008EEF9FEF61C061E070E089E30E94D70762
:1015E00097FD5AC0892B19F487EF9FEF55C04CE83F
:1015F00051E262E070E0CE0109960E94330A4CE8A5
:1016000051E264E070E0CE0101960E94330A4CE89A
:1016100051E266E070E0F801818192810E94330A14
:101620004CE851E266E070E0F801838194810E9409
:10163000330A4CE851E262E070E0C80105960E946E
:10164000330AF8016581768161157105C1F04CE8B6
:1016500051E2878190850E94330A69857A8560937B
:101660008C2170938D2160938E2170938F2142E0A5
:1016700050E08CE00E94360800E010E002C009EF64
:101680001FEF0115110511F0C80106C060E48EE1DD
:101690000E94150797FF03C00E9465078C01C801CF
:1016A0002A96CDBFDEBFDF91CF911F910F91089594
:1016B00061E070E089E30E94D70797FD0C9465070D
:1016C000089561E070E08CE10E94D70797FD0C94CB
:1016D000650799270895682F70E041E050E08BE19D
:1016E0000E94360897FD0C94650780E090E008950D
:1016F000EF92FF920F931F93CF93DF93811520E218
:10170000920708F064C0EC0161E070E089E30E9498
:10171000D70797FD23C0892B19F486EF9FEF1EC0D2
:1017200064E08FE10E94360714E161E070E08FE130
:101730000E94D70797FD12C025E32A95F1F7000014
:1017400011507C0128E0E222FF2483FF03C0111125
:10175000ECCF02C011110AC08AEF9FEFDF91CF9149
:101760001F910F91FF90EF900C9465078E0101502F
:10177000110942E050E0B8018AE00E94360842E0D8
:1017800050E060E070E08CE00E94360842E050E0FB
:1017900060E070E08EE00E94360810928C2110927A
:1017A0008D2110928E2110928F2100939021109301
:1017B00091212196C0932020D0932120C0932220F4
:1017C000D093232064E08FE10E94150704C08EEFC0
:1017D000E82EFF24FA94C701DF91CF911F910F915A
:1017E000FF90EF900895AF92BF92CF92DF92EF9269
:1017F000FF920F931F93CF93DF936115710511F043
:10180000009719F48EEF9FEF84C020912220309131
:10181000232021153042B0F7209120203091212043
:101820002115E0E23E0770F78B01EC0142E050E049
:10183000B90180E00E943608609122207091232037
:1018400042E050E082E00E94360861E070E08EE104
:101850000E94D70787FD08C08068682F70E041E0CC
:1018600050E08EE10E9436088AE78093942180E15F
:10187000809366068AE70E94A60697FD4AC05E012D
:10188000A00EB11E7E016801F1E0CF1AD108AE149E
:10189000BF0429F18701F70180810E94A60697FD08
:1018A00038C0FFEFEF1AFF0AF801608170E080E0B6
:1018B00090E000EA1AE020E040E10E94FD0160EAC9
:1018C0007AE082E790E20E94E401809122209091E8
:1018D000232001968093222090932320D8CF80E16B
:1018E00080936506809366068AE30E94A60697FDAC
:1018F00010C08E0180E00E94A60697FD0AC0F80184
:1019000021918F01992730E08217930771F08BEFB7
:101910009FEFDF91CF911F910F91FF90EF90DF909C
:10192000CF90BF90AF900C9465078091202090914C
:10193000212001968093202090932120CF018C1BA1
:101940009D0BC816D906B0F680E18093650680E04D
:1019500090E0DF91CF911F910F91FF90EF90DF907A
:10196000CF90BF90AF9008958F929F92AF92BF9209
:10197000EF92FF920F931F93CF93DF93CDB7DEB714
:101980002897CDBFDEBF7C012091222030912320FB
:10199000409190215091912142175307A8F48091D2
:1019A0002020909121204817590770F4211560E2FA
:1019B000360750F48115E0E29E0730F42817390706
:1019C00019F4E114F10419F48EEF9FEFA1C09A010C
:1019D0002F5F3F4F209322203093232020932020FD
:1019E0003093212080E090E24C01821A930AA12CCE
:1019F000B12CF701858196810F96092E000CAA0B58
:101A0000BB0B0796A11DB11D88169906AA06BB0639
:101A100018F488EF9FEF7CC019821A821B821C8207
:101A20001D821E821F8218862417350718F48EEF38
:101A30009FEF68C060E88FE10E94150760E88FE1C2
:101A40000E94360762E08CE10E94360768E08CE174
:101A50000E943607609122207091232080E090E060
:101A600000EA1AE02AE04AE00E94FD01609122208B
:101A70007091232042E050E084E00E94360861E04B
:101A800070E0C7010E94F30B66E070E0F70181810E
:101A900092810E94F30B66E070E0F70183819481EC
:101AA0000E94F30B62E070E0C70105960E94F30B01
:101AB000F70165817681878190850E94F30B6091A3
:101AC0002220709123206150710942E050E086E0AD
:101AD0000E94360868E08FE10E94150714E161E07A
:101AE00070E08FE10E94D7077C01F8E0EF22FF242D
:101AF00083FF14C025E32A95F1F70000115079F710
:101B00008AEF9FEF0E9465077C01F7FE04C0C701C2
:101B10000E9465070CC080E090E009C040E250E2FE
:101B200067E070E0CE0101960E94330AEECF28965E
:101B3000CDBFDEBFDF91CF911F910F91FF90EF904E
:101B4000BF90AF909F908F900895CF93DF93CDB7C4
:101B5000DEB7C055D109CDBFDEBF5E012BE4A20EBA
:101B6000B11C86E0E4E5F0E2D50101900D928A9582
:101B7000E1F76E0184E4C80ED11CF60116821082D2
:101B80001E8E8CE0EBE5F0E2DE015F9601900D9297
:101B90008A95E1F71CAA8EE490E28DAB9EAB8FABE9
:101BA00098AF86E090E089AF9AAFABAEBCAE1BA613
:101BB000CCA6DDA63E01FDE36F0E711C6EA67FA6CE
:101BC00081E090E088AB99ABCE0101964C018AABE5
:101BD0009BAB86E0809350008091510081FFFCCF49
:101BE0008091510082FFFCCF88ED84BF10924100AC
:101BF00084BF81E080934000109256008093600083
:101C000080EA9AE00E94DB0020EA3AE043E050E0FC
:101C100060E085EF9CEC0E948001EF8CF8A009A1A8
:101C20001AA12BA13CA14DA15EA16FA178A589A508
:101C30009AA50E9497051092740680E18093610630
:101C4000809365068AE18093730688E0809362063C
:101C5000EDB7FEB77797EDBFFEBFADB7BEB7119634
:101C600087E1E5E2F0E201900D928A95E1F70E94AA
:101C70009908CDBFDEBF80EA9AE00E94C20181349C
:101C8000D1F7CE01C4960E94B40CF50180818F5F1C
:101C90008083FFEF2FE483ECF15020408040E1F798
:101CA00000C0000060EA7AE087E690E20E94E4016A
:101CB000CE018B960E94BC0A60EA7AE0C6010E94BF
:101CC000E40160EA7AE081E790E20E94E40160EAE0
:101CD0007AE0C3010E94E40160EA7AE081E790E2E1
:101CE0000E94E40160EA7AE0C4010E94E40160EA33
:101CF0007AE081E790E20E94E401BDCFFF920F936A
:101D00001F93CF93DF93F82EEB018A0161E070E01F
:101D100082ED0E94D70797FD82C080FD0BC06F2D1A
:101D20006F7170E041E050E084ED0E94360897FF4B
:101D30000CC075C0BC016E7F772741E050E082ED9A
:101D40000E94360897FFEBCF6AC061E070E082ED39
:101D50000E94D70797FD63C08160BC01772741E0EF
:101D600050E082ED0E94360897FD59C085E78A95BC
:101D7000F1F7000084E6F82E61E070E08AEE0E9440
:101D8000D70797FD4CC080FF0CC08FE891E001970A
:101D9000F1F700C00000FA94F110EECF8DEF9FEF45
:101DA0003EC061E070E082ED0E94D70797FD37C02A
:101DB000BC016E7F772741E050E082ED0E9436083B
:101DC00097FD2DC062E070E088ED0E94D70797FD77
:101DD00026C08C239D23BC01602B712B42E050E078
:101DE00086ED0E94360897FD1AC095E79A95F1F79F
:101DF0000000C4E661E070E08AEE0E94D7079C0113
:101E000097FD0DC08170992720FF09C08FE891E0F0
:101E10000197F1F700C00000C15061F7BFCFDF911B
:101E2000CF911F910F91FF900895FB01DC010D9060
:101E30000020E9F7119701900D920020E1F7089535
:101E4000FB01DC018D91019080190110D9F3990BF0
:101E50000895FB01DC0101900D920020E1F7089547
:101E60004532510520F4423010F00C943B0FFB0139
:101E70001082CB010895BB274A3031F4992322F414
:101E8000BDE2909581959F4F0C94470FBB27FB01B6
:101E90005527AA27880F991FAA1FA41710F0A41B63
:101EA00083955051B9F7A05DAA3308F0A95DA193BD
:101EB000009779F7B111B1931192CB010C94600F97
:101EC000DC01FC01672F71917723E1F7329704C0A1
:101ED0007C916D9370836291AE17BF07C8F308952C
:041EE000F894FFCFA4
:101EE400A620A620A620A620A620A620A620A620BE
:101EF400AB20B320BA20C120D120DE20E620F02080
:101F0400FFFFFFFFFF0004000000000000000000CE
:101F14000000000000010042203C20C0020001003B
:101F2400050006000300000000000001000041421B
:101F34004344454661626364657700C0090100005B
:101F44000080000000FFFF0A5245434549564544BE
:101F5400000A0A0055415254204465627567204DB9
:101F64006F6465203A202D2D2D2D2D2D2D2D2D2DF9
:101F74002D2D2D2D2D2D2D2D2D2D2D2D2D2D2D2D8D
:101F84002D2D2D2D0A007C4F4B7C004154264630CC
:101F94000D0A00415445300D0A00415456310D0AD2
:101FA4000041542B4950523D3131353230300D0A05
:101FB4000041542B4943463D332C330D0A00415410
:101FC4002657300D0A0041542B43504F460D0A004A
:101FD40041544400200A4552525F434F4445203A3D
:101FE4002000200A2041542052454144494E4720B4
:101FF400434F4D4D414E442000200A204154205768
:10200400524954494E4720434F4D4D414E442000C0
:10201400200A20574954482056414C203A20200099
:10202400200A204C41535420524541442056414CEF
:10203400203A2020000A2041542052454749535455
:102044004552203A2020000A2041542042414E4B60
:10205400203A2020002068657265206D616E2000A2
:00000001FF
