:100000000C94BC000C94D1000C94D1000C94D10041
:100010000C94D1000C94D1000C94D1000C94D1001C
:100020000C94D1000C94D1000C94D1000C94D1000C
:100030000C94D1000C94D1000C94D1000C94D100FC
:100040000C94D1000C94D1000C94D1000C94D100EC
:100050000C94D1000C94D1000C94D1000C94D100DC
:100060000C94D1000C94D1000C94D1000C94D100CC
:100070000C94D1000C94D1000C94D1000C94D100BC
:100080000C94D1000C94D1000C94D1000C94D100AC
:100090000C94D1000C94D1000C94D1000C94D1009C
:1000A0000C94D1000C94D1000C94D1000C94D1008C
:1000B0000C94D1000C94D1000C94D1000C94D1007C
:1000C0000C94D1000C94D1000C94D1000C94D1006C
:1000D0000C94D1000C94D1000C94D1000C94D1005C
:1000E0000C94D1000C94D1000C94D1000C94D1004C
:1000F0000C94D1000C94D1000C94D1000C94D1003C
:100100000C94D1000C94D1000C94D1000C94D1002B
:100110000C94D1000C94D1000C94D1000C94D1001B
:100120000C94D1000C94D1000C94D1000C94D1000B
:100130000C94D1000C94D1000C94D1000C94D100FB
:100140000C94D1000C94D1000C94D1000C94D100EB
:100150000C94D1000C94D1000C94D1000C94D100DB
:100160000C94D1000C94D1000C94D1000C94D100CB
:100170000C94D1000C94D10011241FBECFEFCDBF41
:10018000DFE2DEBF10E2A0E0B0E2EEEBF5E002C09D
:1001900005900D92AE33B107D9F70E9478020C9406
:1001A000DD020C940000803A28E0920749F4109296
:1001B000520684E0809342061092530688E00CC0F9
:1001C000803B28E0920759F41092560680E4809311
:1001D00042061092570680E8809341060895803ABF
:1001E00029E0920749F41092720684E08093620637
:1001F0001092730688E00CC0803B29E0920759F406
:100200001092760680E4809362061092770680E86A
:10021000809361060895803A9A4051F410929206B4
:1002200084E0809382061092930688E08093810692
:100230000895803A28E0920771F41092520684E003
:10024000809342061092530688E0809341061092F4
:10025000510682E011C0803B28E0920781F41092A1
:10026000560680E4809342061092570680E88093F9
:1002700041061092550680E2809341060895803A27
:1002800029E0920771F41092720684E0809362066E
:100290001092730688E0809361061092710682E0E6
:1002A00011C0803B29E0920781F41092760680E429
:1002B000809362061092770680E880936106109220
:1002C000750680E2809361060895803A9A4079F439
:1002D0001092920684E0809382061092930688E042
:1002E000809381061092910682E0809381060895A2
:1002F000F901868397834583611102C088E101C0BB
:100300008CE184830895F901868397834064458353
:10031000611102C088E101C08CE184830895FA0173
:100320008683178280EC8583611102C088E101C059
:100330008CE184830895FA018683178280EC85839B
:10034000611102C088E001C08CE084830895FC0143
:10035000148208956295607F462B880F880F842B46
:10036000F90183830895FB018083FB01818185FF6F
:10037000FCCF0895FC0121812223E1F380810895BF
:10038000FB01918196FFFDCF808381818823E9F372
:1003900080810895982FFB018181882311F090833B
:1003A00081E00895FC012181222319F0808190E0F1
:1003B00008958FEF9FEF0895EF92FF920F931F9391
:1003C000CF938C017B01C0E0F801EC0FF11D80811F
:1003D000882329F0B7010E94B301CF5FF5CFCF91F9
:1003E0001F910F91FF90EF900895CF92DF92FF92AF
:1003F0000F931F93CF93DF93CDB7DEB72B97CDBF6E
:10040000DEBFDC01CB01F22E680150E0BE016F5F60
:100410007F4F0E949D0210E0E1E0F0E0EC0FFD1F35
:10042000E10FF11D8081882329F0B6010E94B301FC
:100430001F5FF2CFFF2021F0B6018F2D0E94B30184
:100440002B96CDBFDEBFDF91CF911F910F91FF9013
:10045000DF90CF900895CF92DF92EF92FF920F93AB
:100460001F93CF93DF937C016A018C01EB012197ED
:10047000C8018E199F09C817D90738F0B601F801CD
:1004800081918F010E94B301F3CFDF91CF911F9132
:100490000F91FF90EF90DF90CF900895CF93DF936F
:1004A000CDB7DEB7E297CDBFDEBF82E3EBE0F0E28F
:1004B000DE01119601900D928A95E1F780EA9AE0AB
:1004C0000E94D300E0EAFAE081E0868383EA878332
:1004D00083E0858388E1848360EA7AE0CE01019637
:1004E0000E94DC01E296CDBFDEBFDF91CF9108957F
:1004F0000E944E0200EA1AE02AE04AE060E870E05A
:1005000080E090E00E94F5012FE78FE492E1215016
:1005100080409040E1F700C0000060EA7AE080E0AF
:1005200090E20E94DC012FE78FE492E121508040AD
:100530009040E1F700C00000DDCF4532510520F4C6
:10054000423010F00C94A802FB011082CB010895F8
:10055000BB274A3031F4992322F4BDE2909581956E
:100560009F4F0C94B402BB27FB015527AA27880F85
:10057000991FAA1FA41710F0A41B83955051B9F717
:10058000A05DAA3308F0A95DA193009779F7B11196
:10059000B1931192CB010C94CD02DC01FC01672FC9
:1005A00071917723E1F7329704C07C916D9370834A
:0E05B0006291AE17BF07C8F30895F894FFCF0D
:1005BE006D7920206E696767610A0055415254209B
:1005CE004465627567204D6F6465203A202D2D2D90
:1005DE002D2D2D2D2D2D2D2D2D2D2D2D2D2D2D2D3D
:0E05EE002D2D2D2D2D2D2D2D2D2D2D0A000006
:00000001FF
